:100000000C9434000C943E000C943E000C943E0082
:100010000C943E000C943E000C943E000C943E0068
:100020000C943E000C943E000C943E000C943E0058
:100030000C943E000C943E000C943E000C943E0048
:100040000C943E000C943E000C943E000C943E0038
:100050000C943E000C943E000C943E000C943E0028
:100060000C943E000C943E0011241FBECFEFD8E04C
:10007000DEBFCDBF0E9440000C94D4000C94000061
:10008000CF93DF93CDB7DEB728970FB6F894DEBFD6
:100090000FBECDBF10927C0087E880937A0010924B
:1000A0007B001092C50087E68093C40080E48093B3
:1000B000C00088E18093C10086E08093C2002FEFEA
:1000C00083ED90E3215080409040E1F700C00000B4
:1000D000EAE7F0E080818064808380917A0084FF89
:1000E000FCCF8091780080917900EAE7F0E0808190
:1000F0008061808383E390E09A83898381E390E049
:100100009C838B838EE290E09E838D8382E390E0DC
:1001100098878F8320E030E019C08091C00085FF70
:10012000FCCFF901EE0FFF1F81E090E08C0F9D1FC7
:10013000E80FF91F80818093C6008091C00086FF80
:10014000FCCF80E48093C0002F5F3F4F2430310507
:1001500024F38091C00085FFFCCF8FE68093C6001A
:100160008091C00086FFFCCF80E48093C000809126
:10017000C00085FFFCCF83E48093C6008091C0005F
:1001800086FFFCCF80E48093C0008091C00085FF93
:10019000FCCF8AE08093C6008091C00086FFFCCF30
:0C01A00080E48093C0008BCFF894FFCF68
:00000001FF
