:100000000C9434000C943E000C943E000C943E0082
:100010000C943E000C943E000C943E000C943E0068
:100020000C943E000C943E000C943E000C943E0058
:100030000C943E000C943E000C943E000C943E0048
:100040000C943E000C943E000C943E000C943E0038
:100050000C943E000C943E000C943E000C943E0028
:100060000C943E000C943E0011241FBECFEFD8E04C
:10007000DEBFCDBF0E9440000C94A0000C94000095
:10008000CF93DF93CDB7DEB76E970FB6F894DEBF90
:100090000FBECDBF1A821982FE0133968CE1DF01BB
:1000A0001D928A95E9F71092C50087E68093C400F7
:1000B00080E48093C00088E18093C10086E0809353
:1000C000C20020E030E011C08091C0008823E4F736
:1000D0008091C600E1E0F0E0EC0FFD1FE20FF31F9E
:1000E00080838A3049F02F5F3F4F8091C6008A306D
:1000F00059F32E31310544F3FE013196DF010D90A5
:100100000020E9F711979D012E1B3F0B16C080912F
:10011000C00085FFFCCFE1E0F0E0EC0FFD1FE20F37
:10012000F31F80818093C6008091C00086FFFCCFC2
:1001300080E48093C00021503109332344F7C1CFBC
:04014000F894FFCF61
:00000001FF
