:100000000C9434000C943E000C943E000C943E0082
:100010000C943E000C943E000C943E000C943E0068
:100020000C943E000C943E000C943E000C943E0058
:100030000C943E000C943E000C943E000C943E0048
:100040000C943E000C943E000C943E000C943E0038
:100050000C943E000C943E000C943E000C943E0028
:100060000C943E000C943E0011241FBECFEFD8E04C
:10007000DEBFCDBF0E9440000C945F000C940000D6
:1000800080E48AB987E085BB1BB816BC8FEF87BDBB
:1000900082E484BD85E085BD8FEFA99BFECF92E011
:1000A00095BB8F5F87BD87B5811104C08DEF87BD7C
:1000B0008FEFF3CF87B585E087BD81E0EECFF89471
:0200C000FFCF70
:00000001FF
