:100000000C9434000C943E000C943E000C943E0082
:100010000C943E000C943E000C943E000C943E0068
:100020000C943E000C943E000C943E000C943E0058
:100030000C943E000C943E000C943E000C943E0048
:100040000C943E000C943E000C943E000C943E0038
:100050000C943E000C943E000C943E000C943E0028
:100060000C943E000C943E0011241FBECFEFD8E04C
:10007000DEBFCDBF0E9440000C9456000C940000DF
:1000800080E28AB987E085BB14BC84E085BD80E04E
:1000900090E0A89BFECF21E025BB01968A3F910509
:1000A000C1F79BB180E289278BB9F1CFF894FFCFDC
:00000001FF
