:100000000C9434000C943E000C943E000C943E0082
:100010000C943E000C943E000C943E000C943E0068
:100020000C943E000C943E000C943E000C943E0058
:100030000C943E000C943E000C943E000C943E0048
:100040000C9440000C943E000C943E000C943E0036
:100050000C943E000C943E000C943E000C943E0028
:100060000C943E000C943E0011241FBECFEFD8E04C
:10007000DEBFCDBF0E9452000C9460000C940000C3
:100080001F920F920FB60F9211248F939F9395B1E9
:1000900080E2892785B99F918F910F900FBE0F90B5
:1000A0001F90189580E284B987E085BB81E080933A
:1000B0006E00789415B816BC14BC85E085BDFFCFE2
:0400C000F894FFCFE2
:00000001FF
