S01500006D6F646F70776D74696D6572312E73726563BA
S11300000C9434000C943E000C943E000C943E007E
S11300100C943E000C943E000C943E000C943E0064
S11300200C943E000C943E000C943E000C94400052
S11300300C943E000C943E000C943E000C943E0044
S11300400C943E000C943E000C943E000C943E0034
S11300500C943E000C943E000C943E000C943E0024
S11300600C943E000C943E0011241FBECFEFD8E048
S1130070DEBFCDBF0E9454000C9469000C940000B4
S11300801F920F920FB60F9211248F939F9382E0C9
S113009086BB95B180E2892785B99F918F910F9096
S11300A00FBE0F901F90189580E284B983E280936D
S11300B080008DE1809381007894109282008FEF0C
S11300C0809389008093880082E080936F0086BBD0
S10900D0FFCFF894FFCFFE
S9030000FC
