S00B000074634F2E73726563F3
S11300000C9434000C943E000C943E000C943E007E
S11300100C943E000C943E000C943E000C943E0064
S11300200C943E000C943E000C943E000C943E0054
S11300300C943E000C943E000C943E000C943E0044
S11300400C943E000C943E000C943E000C943E0034
S11300500C943E000C943E000C943E000C943E0024
S11300600C943E000C943E0011241FBECFEFD8E048
S1130070DEBFCDBF0E9440000C9452000C940000DF
S113008080E284B987E085BB15B816BC14BC85E052
S113009085BDA89BFECF81E085BB95B180E2892711
S10B00A085B9F7CFF894FFCFF6
S9030000FC
