S011000047636350776D696E742E7372656387
S11300000C9434000C943E000C943E000C943E007E
S11300100C943E000C943E000C943E000C943E0064
S11300200C943E000C943E000C943E000C943E0054
S11300300C943E000C943E000C9440000C94590027
S11300400C943E000C943E000C943E000C943E0034
S11300500C943E000C943E000C943E000C943E0024
S11300600C943E000C943E0011241FBECFEFD8E048
S1130070DEBFCDBF0E9473000C9485000C94000079
S11300801F920F920FB60F9211248F939F9387B5EF
S11300908F5F87BD9BB180E489278BB987B58F3F7C
S11300A009F417BC9F918F910F900FBE0F901F9072
S11300B018951F920F920FB60F9211248F939F934E
S11300C088B5815088BD9BB188E089278BB988B5F4
S11300D0811102C08FEF88BD9F918F910F900FBE49
S11300E00F901F90189580E484B987E085BB86E063
S11300F080936E001BB816BC789417BC8FEF88BD34
S111010083EA84BD85E085BDFFCFF894FFCF70
S9030000FC
