S014000047636370776D74656E7461312E7372656362
S11300000C9434000C943E000C943E000C943E007E
S11300100C943E000C943E000C943E000C943E0064
S11300200C943E000C943E000C943E000C943E0054
S11300300C943E000C943E000C943E000C943E0044
S11300400C943E000C943E000C943E000C943E0034
S11300500C943E000C943E000C943E000C943E0024
S11300600C943E000C943E0011241FBECFEFD8E048
S1130070DEBFCDBF0E9440000C9463000C940000CE
S113008080E484B988E084B987E085BB1BB816BCDA
S113009017BC83E884BD84E085BDA99BFECF82E0C4
S11300A085BB87B58F5F87BD87B58F3FB1F717BC19
S11300B09BB180E489278BB99BB188E089278BB9F0
S10D00C082E085BBEACFF894FFCF7D
S9030000FC
