S01500006D6F646F63746374696D6572312E73726563D4
S11300000C9434000C943E000C943E000C943E007E
S11300100C943E000C943E000C943E000C943E0064
S11300200C943E000C943E000C943E000C94400052
S11300300C943E000C943E000C943E000C943E0044
S11300400C943E000C943E000C943E000C943E0034
S11300500C943E000C943E000C943E000C943E0024
S11300600C943E000C943E0011241FBECFEFD8E048
S1130070DEBFCDBF0E9452000C946B000C940000B4
S11300801F920F920FB60F9211248F939F9395B1E5
S113009080E2892785B99F918F910F900FBE0F90B1
S11300A01F90189580E284B980E4809380008CE0EE
S11300B08093810010928200109285001092840037
S11300C08FEF8093890080938800789482E08093F6
S10D00D06F0086BBFFCFF894FFCF4A
S9030000FC
