:100000000C9434000C943E000C943E000C943E0082
:100010000C943E000C943E000C943E000C943E0068
:100020000C943E000C943E000C943E000C943E0058
:100030000C943E000C943E000C943E000C943E0048
:100040000C943E000C943E000C943E000C943E0038
:100050000C943E000C943E000C943E000C943E0028
:100060000C943E000C943E0011241FBECFEFD8E04C
:10007000DEBFCDBF0E9440000C9457000C940000DE
:1000800080E484B987E085BB1BB816BC17BC83E845
:1000900084BD81E085BDA99BFECF82E085BB87B58D
:1000A0008F5F87BD87B58F3FB1F717BCF4CFF8944A
:0200B000FFCF80
:00000001FF
