S01700004763634170706C69636174696F6E312E737265635B
S11300000C9434000C943E000C943E000C943E007E
S11300100C943E000C943E000C943E000C943E0064
S11300200C943E000C943E000C943E000C943E0054
S11300300C943E000C943E000C943E000C943E0044
S11300400C943E000C943E000C943E000C943E0034
S11300500C943E000C943E000C943E000C943E0024
S11300600C943E000C943E0011241FBECFEFD8E048
S1130070DEBFCDBF0E9440000C9462000C940000CF
S113008080E284B985B92FEF83ED90E3215080405D
S11300909040E1F700C0000015B82FEF80E792E030
S11300A0215080409040E1F700C0000080E285B913
S11300B02FEF80E792E0215080409040E1F700C0AC
S10B00C00000EACFF894FFCF21
S9030000FC
