:100000000C9434000C943E000C943E000C943E0082
:100010000C943E000C943E000C943E000C943E0068
:100020000C943E000C943E000C943E000C943E0058
:100030000C943E000C943E000C943E000C943E0048
:100040000C943E000C943E000C943E000C943E0038
:100050000C943E000C943E000C943E000C943E0028
:100060000C943E000C943E0011241FBECFEFD8E04C
:10007000DEBFCDBF0E9440000C945B000C940000DA
:1000800080E284B987E085BB15B816BC14BC85E056
:1000900085BD80E090E0A89BFECF019621E025BBC6
:1000A000843F21E09207B9F781E085BB95B180E2FA
:0A00B000892785B9EECFF894FFCF41
:00000001FF
